:020000040800F2
:10000000B87B0020A1280008A53F0008A73F0008F2
:10001000AB3F0008AF3F0008B33F000800000000FE
:10002000000000000000000000000000B73F0008D2
:10003000B93F000800000000BB3F000865540008FD
:10004000BB280008BB280008BB280008BB28000804
:10005000BB280008BB280008BB280008BB280008F4
:10006000BB280008BB280008BB280008BB280008E4
:10007000BB280008BB280008BB280008BB280008D4
:10008000BB280008BB280008BB280008BB280008C4
:10009000BB280008BB280008BB280008BB280008B4
:1000A000BB280008BB280008BB280008BB280008A4
:1000B000BB280008BB280008BB280008BB28000894
:1000C000BB280008BB280008BB280008BB28000884
:1000D000BB280008BB280008BB280008BB28000874
:1000E000C5550008BB280008BB2800080000000018
:1000F0000000000000000000000000000000000000
:100100000000000000000000BB280008BB28000819
:10011000BB280008BB280008BB280008BB28000833
:10012000BB280008BB280008BB280008BB28000823
:10013000BB280008BB280008BB280008BB28000813
:10014000BB280008BB280008BB280008BB28000803
:1001500000F002F800F05EF80AA090E8000C82447B
:100160008344AAF10107DA4501D100F053F8AFF258
:10017000090EBAE80F0013F0010F18BFFB1A43F085
:1001800001031847A87C0000C87C000010F8013B60
:100190000A4413F0030408BF10F8014B1D1108BFF7
:1001A00010F8015B641E05D010F8016B641E01F8A5
:1001B000016BF9D1002D15D010F8014B03F00C03A1
:1001C0000C2BA1EB04040ABF10F8013BA4EB831431
:1001D000A4EB032405F1010314F8016B5B1E01F885
:1001E000016BF9D5914238BF10F8013BD1D370476C
:1001F0000023002400250026103A28BF78C1FBD830
:10020000520728BF30C148BF0B6070471FB51FBDE4
:1002100010B510BD06F0DDFF1146FFF7F7FF03F044
:1002200063FA06F0FBFF03B4FFF7F2FF03BC06F02E
:10023000FFFF0000002100208D4A126842F4803246
:100240008B4B1A6000BF8A4A126802F40030491CC6
:1002500010B9B1F5A06FF6D1854A126812F4003FCB
:1002600001D0012000E0002001285AD1814A126803
:1002700042F010027F4B1A601A46126822F0030205
:100280001A601A46126842F002021A60784A5268EE
:10029000774B5A601A4652685A601A46526842F4BE
:1002A00080625A601A46D26A734B1A40704BDA6207
:1002B0001A46D26A714B1A436D4BDA621A461268BB
:1002C00042F080621A6000BF694A126812F0006F43
:1002D000FAD0674A526822F47C12654B5A601A467B
:1002E000526842F4E8125A601A46126842F080726C
:1002F0001A6000BF5E4A126812F0007FFAD05C4AB2
:10030000526822F003025A4B5A601A46526842F071
:1003100002025A6000BF564A526802F00C02082AD4
:10032000F9D1704710B5FFF785FF10BD10B55048E3
:10033000006840F001004E49086008464068504996
:1003400008404B494860084600684E490840484903
:1003500008600846006820F480200860084640686D
:1003600020F4FE0048600846006820F0A0500860B5
:100370004FF47F0088600020C862FFF7D3FF4FF082
:1003800000604149086010BDF0B500210020002345
:100390000024002200250026354F7F6807F00C015D
:1003A00021B1042908D008294BD10BE0374FDFF8E1
:1003B000E0C0CCF800704AE0364FDFF8D4C0CCF88B
:1003C000007044E02A4F7F6807F47010284F7F6860
:1003D00007F48033800C0D2801D0801C00E006203B
:1003E00033B92D4F4743DFF8A8C0CCF8007027E0A1
:1003F0001F4FFF6A07F480341D4FFF6A07F00F0795
:100400007A1C44B9234FB7FBF2F74743DFF880C0AB
:10041000CCF8007014E0164FFF6AC7F303177D1C79
:10042000134FFF6AC7F30327BE1C1A4FB7FBF5F73C
:100430007743B7FBF2F74743DFF854C0CCF80070BE
:1004400005E0124FDFF848C0CCF8007000BF00BFD5
:10045000074F7F68C7F30317DFF840C01CF8071089
:100460000B4F3F68CF40DFF828C0CCF80070F0BDDC
:10047000001002400020024000F0FEFF4406010090
:100480000000FFF0FFFFF6FE08ED00E000127A002A
:100490000000002040787D0100093D00040000209C
:1004A00031490143314A1160704770B50021002382
:1004B0000F22C4780CB32D4C246804F4E064C4F516
:1004C000E064210AC1F10403CA40447804FA03F14C
:1004D0008478144021430901254C0678A1550478FD
:1004E00004F01F050124AC4005786D114FF0E026A3
:1004F00006EB8505C5F8004109E0047804F01F0506
:100500000124AC401B4D0678761145F8264070BD9D
:10051000194A0A400243154B1B1F1A60704739B134
:10052000124A121D12680243104B1B1D1A6006E08E
:100530000E4A121D126882430C4B1B1D1A60704735
:10054000042808D14FF0E021096941F004014FF07F
:10055000E022116107E04FF0E021096921F0040178
:100560004FF0E022116170470000FA050CED00E049
:1005700000E400E080E100E080FFFF1F10B50446CA
:10058000CA48844208D10121042000F0E3FB002185
:10059000042000F0DFFB46E0C548844208D1012179
:1005A000082000F0D7FB0021082000F0D3FB3AE040
:1005B000C048844208D10121102000F0CBFB00216B
:1005C000102000F0C7FB2EE0BB48844208D1012177
:1005D000202000F0BFFB0021202000F0BBFB22E028
:1005E000B648844208D10121402000F0B3FB00212D
:1005F000402000F0AFFB16E0B148844208D1012151
:10060000802000F0A7FB0021802000F0A3FB0AE07F
:10061000AC48844207D10121801500F09BFB0021EA
:10062000A01500F097FB10BD10B50121084600F0A1
:1006300091FB0021012000F08DFB10BD2DE9F04160
:10064000024600250026002000230024002791F800
:1006500003C00CF00F0591F803C01CF0100F03D07D
:1006600091F802C04CEA050591F800C0BCF1000FFA
:1006700031D0146800202BE04FF0010C0CFA00F38D
:10068000B1F800C00CEA03069E4220D183004FF06F
:100690000F0C0CFA03F7BC4305FA03FC4CEA040404
:1006A00091F803C0BCF1280F06D14FF0010C0CFAF1
:1006B00000FCC2F814C00AE091F803C0BCF1480F76
:1006C00005D14FF0010C0CFA00FCC2F810C0401C20
:1006D0000828D1D31460B1F800C0BCF1FF0F34DD9D
:1006E000546800202EE000F1080C4FF0010808FAD1
:1006F0000CF3B1F800C00CEA03069E4221D183003E
:100700004FF00F0C0CFA03F7BC4305FA03FC4CEA5C
:10071000040491F803C0BCF1280F05D100F1080CC6
:1007200008FA0CF8C2F8148091F803C0BCF1480F25
:1007300007D100F1080C4FF0010808FA0CF8C2F8D4
:100740001080401C0828CED35460BDE8F0814FF6DD
:10075000FF710180022181700421C170704702463F
:10076000002093680B4201D0012000E00020704778
:100770000146886880B2704702460020D3680B4269
:1007800001D0012000E0002070470146C86880B217
:10079000704701617047416170470AB1016100E033
:1007A00041617047C16070474FF480320A438261F3
:1007B0008161826182698269704702460020424BF2
:1007C00018684FF68073184040EA021008433E4B09
:1007D000186070473D49C8617047F0B50A4600236C
:1007E00000240021002500F00046B6F1004F02D1A0
:1007F000354EF16901E0344E7168C0F3034583B2B0
:1008000000F44016B6F5401F08D121F070612E4E5D
:10081000766826F070662C4F7E6012E000F4801639
:10082000B6F5801F06D1032606FA05F4A14341F070
:10083000706106E0460D360103FA06F6B14341F059
:10084000706122B1460D360103FA06F6314300F01D
:100850000046B6F1004F02D11B4EF16101E01A4E85
:100860007160F0BD30B500228B071C0F0F2303FA17
:1008700004F2154B08338C1053F824309343124C78
:1008800008348D1044F8253023468C1053F824305A
:100890008C07240F00FA04F423430B4C08348D100A
:1008A00044F8253030BD0A4908607047000801400F
:1008B000000C0140001001400014014000180140EC
:1008C000001C0140002001400000014000002042C7
:1008D000DC002042F748006840F00100F54908605C
:1008E00008464068F4490840F249486008460068F4
:1008F000F2490840EF4908600846006820F480206B
:1009000008600846406820F4FE0048600846006819
:1009100020F0A05008604FF47F0088600020C8627B
:100920007047E449096821F48031E24A11601146B8
:10093000096821F480211160B0F5803F03D0B0F543
:10094000802F0ED106E0DB49096841F48031D94A95
:10095000116007E0D749096841F4A021D54A116028
:1009600000E000BF00BF704710B501460022002321
:1009700000204A11012A02D1CE4C236806E0022A47
:1009800002D1CC4C236A01E0CA4C636A01F01F0219
:10099000012494401C4201D0012000E0002010BD41
:1009A00070B500240025002600BF3120FFF7DCFFD2
:1009B0000646641CB4F5A06F01D0002EF5D031209E
:1009C000FFF7D2FF08B1012500E00025284670BDE1
:1009D00001460020B74A106820F0F80040EAC10044
:1009E00010607047B6490860704702460020B14B5E
:1009F000586820F4741042EA01031843AD4B586064
:100A00007047AF490866704702460020A94BD86A74
:100A1000AC4B184042EA01031843A64BD86270471A
:100A200001460020A34AD06A20F0F0000843D062BB
:100A30007047014600209F4AD06A20F47060084346
:100A4000D06270479E498866704701460020994AE7
:100A5000D06A20F470400843D06270479849086714
:100A6000704701460020934A506820F00300084375
:100A7000506070478F48406800F00C007047014696
:100A800000208C4A506820F0F00008435060704706
:100A900001460020874A506820F4E0600843506017
:100AA000704701460020834A506820F4605040EAB5
:100AB000C1005060704729B17E4A527A02437D4B93
:100AC0005A7204E07B4A527A82437A4B5A727047D8
:100AD0007D490860704701460020764A506820F43E
:100AE0004040084350607047784908607047774934
:100AF000091D086070470021754A11706D4A82F81F
:100B00002010012802D0042808D103E00121704AF6
:100B1000117004E005216E4A117000E000BF00BFB3
:100B200070476C49086070476249096A0143614A2D
:100B30001162704767494439086070472DE9F041F8
:100B400000210022002500230026002400278C46D7
:100B5000DFF86081D8F8048008F00C0121B1042985
:100B600007D0082959D109E0DFF86C81C0F800806E
:100B700058E0DFF86881C0F8008053E0DFF8348186
:100B8000D8F8048008F47012DFF82881D8F80480BF
:100B900008F48035920C0D2A01D0921C00E0062248
:100BA00035B9DFF83C8102FB08F8C0F8008033E07B
:100BB000DFF80081D8F82C8008F48036DFF8F48064
:100BC000D8F82C8008F00F0808F1010446B9DFF8C6
:100BD0000C81B8FBF4F808FB02F8C0F800801BE0B9
:100BE000DFF8D080D8F82C80C8F3031808F101078B
:100BF000DFF8C080D8F82C80C8F3032808F1020C75
:100C0000DFF8D880B8FBF7F808FB0CF8B8FBF4F86D
:100C100008FB02F8C0F8008004E0DFF8BC80C0F8F0
:100C2000008000BF00BFDFF88C80D8F8048008F097
:100C3000F0010909DFF8AC8018F80130D0F8008025
:100C400028FA03F8C0F80480DFF86880D8F8048038
:100C500008F4E061090ADFF88C8018F80130D0F858
:100C6000048028FA03F8C0F80880DFF84880D8F834
:100C7000048008F46051C90ADFF8688018F8013070
:100C8000D0F8048028FA03F8C0F80C80DFF824803C
:100C9000D8F8048008F44041890BDFF84C8018F83C
:100CA0000130D0F80C80B8FBF3F8C0F81080BDE834
:100CB000F0810000001002400000FFF0FFFFF6FE90
:100CC00000004242F0FFFEFFD8004242C40542420B
:100CD000201002408004424200127A0040787D01D8
:100CE00000093D00140000202400002029B1354AED
:100CF00052690243334B5A6104E0324A52698243DB
:100D0000304B5A61704729B12E4A926902432D4BEC
:100D10009A6104E02B4A926982432A4B9A61704798
:100D200029B1284AD2690243264BDA6104E0254AF8
:100D3000D2698243234BDA61704729B1214A926A12
:100D40000243204B9A6204E01E4A926A82431D4B82
:100D50009A62704729B11B4AD2680243194BDA6084
:100D600004E0184AD2688243164BDA60704729B112
:100D7000144A12690243134B1A6104E0114A1269C2
:100D80008243104B1A6170470F49086070470F4942
:100D9000C86470470B49C87170470A48406A40F000
:100DA000807008494862704701460020054A9268F1
:100DB0000A4201D0012000E00020704701498872FA
:100DC00070470000001002404004424200004242CE
:100DD00010B50446CE48844208D101218014FFF7A3
:100DE000B9FF0021A014FFF7B5FF16E0C9488442FF
:100DF00008D101210014FFF7BAFF00212014FFF7EA
:100E0000B6FF0AE0C448844207D10121C013FFF7AE
:100E1000AEFF0021E013FFF7AAFF10BD10B50022BE
:100E2000028802F441520B884C8823438C88234368
:100E3000CC8823430C8923434C8923438C89234347
:100E4000CC8923431A430280838B4FF2FF742340E3
:100E500083830B8A038210BD2DE9F04F85B00646CF
:100E60000C464FF0000A02274FF000084FF0010B2C
:100E70000025A946B08B4FF240010840B083022004
:100E80003084B6F81CA0A068022801D100BF59E048
:100E9000A08810B94FF0010B01E04FF0020B9D4804
:100EA000864202D14FF4003501E04FF480259B4883
:100EB000C06A284219D09948C06AC0F30335052D8D
:100EC00003D90F2D01D2AD1C02E00F2D00D1142546
:100ED0009248C06AC0F3031000F101099048B0FBCA
:100EE000F9F068434FEA400904E06846FFF726FE40
:100EF000DDF80090E088B0F5007F0AD14FEA1920B4
:100F000000EB80004000A168B0FBF1F0401D85B20D
:100F10000BE04FEA4B10B9FBF0F000EB8000400013
:100F2000A168B0FBF1F0401D85B20A20B5FBF0F5D9
:100F300005F00108A5EB0800C0F34F074FF6FF705E
:100F400000EA0828022F01DBFF2F02DD02274FF005
:100F50000008E08840EA080038433084A088A1896E
:100F60000843618808432188084340F4006040EA50
:100F70000A0AA6F81CA005B0BDE8F08F0021018088
:100F800041808180C180018141818181C1810721AE
:100F9000018270470021018041808180C18002214F
:100FA000816000218181704721B1028842F04002B6
:100FB000028004E002884FF6BF731A400280704737
:100FC00021B1828B42F48062828304E0828B4FF6EF
:100FD000FF331A408283704730B5002400230C1180
:100FE0000125A540ABB21AB185881D43858002E07A
:100FF00085889D43858030BD1AB183880B438380EB
:1010000002E083888B43838070478181704701466B
:1010100088897047A1F57E42FF3A04D0028842F4E5
:101020008072028004E002884FF6FF631A4002805B
:10103000704721B1828842F00402828004E08288F5
:101040004FF6FB731A408280704702884FF2FF739D
:101050001A40028002880A4302807047018841F4E6
:1010600080510180704721B1028842F40052028011
:1010700004E002884DF6FF731A4002807047024672
:101080000020012901D0108B00E0908A70470146B2
:10109000088A7047B1F5804F04D1028842F480423B
:1010A000028004E002884BF6FF731A40028070470A
:1010B0000246002013890B4201D0012000E00020ED
:1010C0007047CA4302817047F0B5024600200024F1
:1010D0000023002501F00F070126BE40B4B20B111A
:1010E00001269E40B3B2968806EA03051689264279
:1010F00002D00DB1012000E00020F0BD10B50022AB
:1011000001F00F040123A3409AB2D343038110BD21
:101110000030014000380040003C00400010024018
:1011200040787D0110B50446FB48844209D1012175
:101130008803FFF70FFE00214FF48040FFF70AFEFF
:1011400032E0F648844209D101214804FFF70FFE3E
:1011500000214FF40030FFF70AFE25E0F0488442FA
:1011600009D101218804FFF702FE00214FF48020FD
:10117000FFF7FDFD18E0EB48844209D10121C804C6
:10118000FFF7F5FD00214FF40020FFF7F0FD0BE025
:10119000E548844208D101210805FFF7E8FD002158
:1011A0004FF48010FFF7E3FD10BD2DE9F04786B046
:1011B00005460E460024A24600BFA1460027B0897E
:1011C00000B100BF2F462C8A4CF6FF700440F08817
:1011D00004432C82AC894EF6F3100440B088318968
:1011E0000843718908430443AC81AC8A4FF6FF4041
:1011F0000440B0890443AC8201A8FFF79FFCC648B5
:10120000874202D1DDF810A001E0DDF80CA0A8892A
:1012100010F4004F08D00AEBCA0000EB0A10316846
:101220004900B0FBF1F807E00AEBCA0000EB0A1036
:1012300031688900B0FBF1F86420B8FBF0F00401DC
:101240002009642101FB1089A88910F4004F08D0FF
:10125000322000EBC900B0FBF1F000F007000443BE
:1012600008E0322000EB09106421B0FBF1F000F03F
:101270000F0004432C8106B0BDE8F0874FF41651EF
:10128000016000218180C18001810C214181002108
:101290008181704710B502460020108A4FF2FF038B
:1012A00018400B884C8823438C882343CC882343E5
:1012B0001843108210BD0021018041808180C180CF
:1012C000704721B1828942F40052828104E0828910
:1012D0004DF6FF731A4082817047F0B50346002433
:1012E000002600250020A1F510676A3F00D100BF4D
:1012F0001846C1F3421401F01F06012707FA06F54C
:10130000012C01D10C3004E0022C01D1103000E09E
:1013100014301AB107682F43076002E00768AF4333
:101320000760F0BD1AB1838A0B43838202E0838A8F
:101330008B4383827047028A4FF6F0731A40028211
:10134000028A0A430282704782894FF2FF731A4071
:10135000828182890A438281704721B1828942F069
:101360000202828104E082894FF6FD731A40828175
:101370007047028A4FF6DF731A400282028A0A43DC
:101380000282704721B1028A42F48042028204E064
:10139000028A4BF6FF731A4002827047C1F30802BB
:1013A0008280704701468888C0F3080070478189B1
:1013B00041F0010181817047028BD2B20283028B1E
:1013C00042EA012202837047028B02F47F420283C9
:1013D000028B0A430283704721B1828A42F02002C5
:1013E000828204E0828A4FF6DF731A40828270475D
:1013F00021B1828A42F01002828204E0828A4FF692
:10140000EF731A408282704721B1828A42F008024B
:10141000828204E0828A4FF6F7731A408282704714
:1014200021B1828942F40042828103E08289C2F3C1
:101430000E028281704721B1828A42F40062828268
:1014400004E0828A4FF2FF731A4082827047828AD8
:101450004FF6FB731A408282828A0A438282704767
:1014600021B1828A42F00202828204E0828A4FF62F
:10147000FD731A408282704702460020B1F5007F5A
:1014800000D100BF13880B4201D0012000E00020F2
:10149000704701F40072B2F5007F00D100BFCA436B
:1014A0000280704770B5024600240023002500200A
:1014B000A1F510666A3E00D100BFC1F3421501F0EC
:1014C0001F03012606FA03F3012D02D1968933404A
:1014D00006E0022D02D1168A334001E0968A33409D
:1014E0000C12012606FA04F41688344013B10CB12C
:1014F000012000E0002070BD10B500220023A1F5FE
:1015000010646A3C00D100BF0A1201249440A3B2C7
:10151000DC43048010BD000000380140004400405E
:1015200000480040004C00400050004010B5044608
:10153000F948844208D101214015FFF70BFC002136
:101540006015FFF707FC17E0F448844208D1012139
:101550000015FFF7FFFB00212015FFF7FBFB0BE059
:10156000EF48844208D10121C803FFF7F3FB0021B3
:101570004FF40040FFF7EEFB10BD30B502460020EF
:1015800000235068E74C20400D790C6844EA05249C
:10159000204350609068E44C2040D1E902542C4331
:1015A0004D7944EA450420439060D06A20F47000ED
:1015B0000C7C641EE4B2234340EA0350D06230BD89
:1015C00000210160017141718160C16001210174DC
:1015D000704721B1826842F00102826003E08268B4
:1015E00022F001028260704721B1826842F4807269
:1015F000826003E0826822F480728260704710B5D6
:101600000023CBB21AB144681C43446002E0446832
:101610009C43446010BD816841F0080181607047BF
:10162000014600208A6812F0080F01D0012000E076
:1016300000207047816841F00401816070470146D5
:1016400000208A6812F0040F01D0012000E0002081
:10165000704721B1826842F4A002826003E0826890
:1016600022F4A00282607047014600208A6812F4CA
:10167000800F01D0012000E00020704710B50A461D
:1016800000210023416821F46041531E41EA4331A7
:10169000416010BD21B1426842F40062426003E043
:1016A000426822F4006242607047F0B504460D467D
:1016B00000200021092D11DDE068A5F10A0606EBE6
:1016C0004607072606FA07F18843A5F10A0606EB46
:1016D000460603FA06F10843E0600CE0206905EBDA
:1016E0004507072606FA07F1884305EB450603FA86
:1016F00006F108432061072A0FDA606B561E06EBDD
:1017000086071F2606FA07F18843561E06EB860653
:1017100005FA06F10843606322E00D2A0FDA206B18
:10172000D61F06EB86071F2606FA07F18843D61F49
:1017300006EB860605FA06F10843206310E0E06A2E
:10174000A2F10D0606EB86071F2606FA07F188436D
:10175000A2F10D0606EB860605FA06F10843E062E3
:10176000F0BD21B1826842F48012826003E0826899
:1017700022F48012826070470146C86C80B27047C4
:1017800065484C300068704721B1426842F480627D
:10179000426003E0426822F480624260704721B1F7
:1017A000426842F48052426003E0426822F4805270
:1017B000426070470A460021816821F4E0411143EC
:1017C0008160704721B1826842F40042826003E088
:1017D000826822F400428260704721B1826842F43C
:1017E0000212826003E0826822F402128260704773
:1017F000014600208A6812F4001F01D0012000E099
:1018000000207047F0B5044615460020002200264F
:10181000092911DDE068A1F10A0707EB470C07274A
:1018200007FA0CF29043A1F10A0707EB470703FA06
:1018300007F21043E0600CE0206901EB410C072740
:1018400007FA0CF2904301EB410703FA07F2104349
:101850002061A06BC0F30156EF1C06F1010CA7EB51
:101860000C0707EB870C1F2707FA0CF29043EF1CBD
:1018700006F1010CA7EB0C0707EB870701FA07F24B
:101880001043A063F0BD10B50A4600210023816B10
:1018900021F44011531E41EA0351816310BD10B57C
:1018A000002303460B441A6010BD02460023134672
:1018B00001F128000344186880B270470A460021ED
:1018C00041681A4B1940114341607047416282627E
:1018D00070470A460021416821F01F011143416011
:1018E000704740B10C490831096841F400010A4AC7
:1018F0000832116007E008490831096821F4000145
:10190000054A0832116070470246002013680B42F6
:101910000ED001200DE0000000240140002801400D
:10192000003C0140FFFEF0FFFDF7F1FFFFFD3FFF30
:1019300000207047CA430260704770B5024600201D
:10194000002300240B125568CEB205EA0604156880
:101950001D4202D00CB1012000E0002070BD002229
:101960000A12D34303607047002044490860091DF0
:101970000860091D0860091D086041483F4914318D
:101980000860704700213D498279002A3AD00A4612
:10199000126803689A430B461A600A1D12680368AE
:1019A0009A430B1D1A60027911440A6803681A43AE
:1019B0000A60324A0832126803689A432F4B083390
:1019C0001A601A1D126803689A432C4B0C331A6074
:1019D0004279102A0ED11A1F126803681A43274B46
:1019E00008331A601A1D126803681A43234B0C331C
:1019F0001A600DE02149427911440A6803681A43CC
:101A00000A6005E0027911440A6803689A430A6093
:101A100070470021016001710C2141710021817129
:101A200070471649103109680143144A1032116099
:101A3000704701460020114A143212680A4201D050
:101A4000012000E0002070470C4914310860704705
:101A5000014600200022094B1B6803EA0102074BE4
:101A600014331B680B4202D00AB1012000E00020B1
:101A700070470249143108607047000000040140BB
:101A8000FFFF0F0010B50446FE48844208D1012133
:101A9000C014FFF75FF90021E014FFF75BF9C4E021
:101AA000B4F1804F08D101210846FFF760F9002109
:101AB0000120FFF75CF9B8E0F348844208D1012126
:101AC0000220FFF754F900210220FFF750F9ACE0A3
:101AD000EE48844208D101210420FFF748F9002193
:101AE0000420FFF744F9A0E0E948844208D101212D
:101AF0000820FFF73CF900210820FFF738F994E0AF
:101B0000E448844208D101211020FFF730F9002178
:101B10001020FFF72CF988E0DF48844208D101212A
:101B20002020FFF724F900212020FFF720F97CE096
:101B3000DA48844208D101214014FFF70BF9002153
:101B40006014FFF707F970E0D548844209D10121FC
:101B5000C804FFF7FFF800214FF40020FFF7FAF860
:101B600063E0D048844209D101210805FFF7F2F86B
:101B700000214FF48010FFF7EDF856E0CA48844288
:101B800009D101214805FFF7E5F800214FF40010C5
:101B9000FFF7E0F849E0C548844208D10121402020
:101BA000FFF7E5F800214020FFF7E1F83DE0C048ED
:101BB000844208D101218020FFF7D9F8002180203C
:101BC000FFF7D5F831E0BB48844208D101218015E8
:101BD000FFF7CDF80021A015FFF7C9F825E0B648BA
:101BE000844209D101210804FFF7B4F800214FF421
:101BF0008030FFF7AFF818E0B048844209D10121E6
:101C00004804FFF7A7F800214FF40030FFF7A2F8CF
:101C10000BE0AB48844208D101218804FFF79AF811
:101C200000214FF48020FFF795F810BD00220288B4
:101C3000944B98420ED0994B98420BD0B0F1804F04
:101C400008D0914B984205D0904B984202D0904BCF
:101C5000984204D14FF68F731A404B881A438D4B2C
:101C6000984207D08C4B984204D04FF6FF431A405D
:101C7000CB881A4302808B8883850B880385814B30
:101C800098420BD0854B984208D08B4B984205D098
:101C90008A4B984202D08A4B984201D10B7A038634
:101CA00001238382704770B5002400220023058C35
:101CB0004FF6FE7635400584028C8388048B4FF600
:101CC0008F752C40B51E2C400D882C43751E2A4064
:101CD0000D892A434D882A436A4DA8420BD06F4D87
:101CE000A84208D0744DA84205D0744DA84202D035
:101CF000734DA84213D14FF6F7752A404D892A43F8
:101D00004FF6FB752A408D882A434FF6FF652B401E
:101D10004FF6FF552B408D892B43CD892B43838074
:101D20000483CD888586028470BD70B500240022AE
:101D30000023058C4FF6EF7635400584028C8388AE
:101D4000048B48F6FF752C404FF6FF452C400D885C
:101D50004FF6FF7606EA05252C434FF6DF752A403D
:101D60000D8906EA05152A434D8806EA05152A431A
:101D7000444DA84202D0494DA8421DD14FF67F756F
:101D80002A404D894FF6FF7606EA05152A434FF69D
:101D9000BF752A408D8806EA05152A434FF6FF35A0
:101DA0002B404FF2FF752B408D8906EA85052B43AA
:101DB000CD8906EA85052B4383800483CD8805877A
:101DC000028470BD70B5002400220023058C4FF6FC
:101DD000FF6635400584028C8388848B4FF68F75AF
:101DE0002C404FF6FC752C400D882C434FF6FF55C8
:101DF0002A400D894FF6FF7606EA05252A434D88CD
:101E000006EA05252A431F4DA84202D0234DA842C9
:101E10001DD14FF2FF752A404D894FF6FF7606EA35
:101E200005252A434FF6FF352A408D8806EA052509
:101E30002A434EF6FF752B404DF6FF752B408D89DA
:101E400006EA05152B43CD8906EA05152B43838049
:101E50008483CD888587028470BD70B500220023FD
:101E60000024058C4EF6FF7635400584038C84886B
:101E7000828B48F6FF752A404FF6FF452A400D88B1
:101E800020E00000002C0140000400400008004059
:101E9000000C0040001000400014004000340140DD
:101EA000004C014000500140005401400018004027
:101EB000001C004000200040004001400044014060
:101EC000004801404FF6FF7606EA05252A434DF605
:101ED000FF752B400D8906EA05352B434D8806EA30
:101EE00005352B43FA4DA84202D0FA4DA84208D13D
:101EF0004BF6FF752C408D894FF6FF7606EA851567
:101F00002C4384808283CD88A0F84050038470BD28
:101F1000828B4FF2FF331A408283828B4FF6FF731E
:101F200003EA01231A4382837047F0B50C46154635
:101F3000002200210026078C4EF6FF7C07EA0C07E2
:101F40000784828B018C4FF6FF7707EA043640F650
:101F5000FF473A404FF6FF7707EA05273A434FF627
:101F6000FF7707EA03373A43D94FB8420ED0D94F2B
:101F7000B8420BD0B0F1804F08D0D74FB84205D04F
:101F8000D64FB84202D0D64FB84206D14DF6FF77B1
:101F9000394046F48057394305E047F6FF5739404A
:101FA00044F48057394382830184F0BD828B4FF61D
:101FB000F3731A408283828B0A4382837047F0B5A1
:101FC0000C461546002200210026078C4FF6FF6CB8
:101FD00007EA0C070784828B018C4FF6FF7707EA2C
:101FE00004264FF60C773A404FF6FF7707EA0317BF
:101FF0002F433A43B64FB8420ED0B64FB8420BD03B
:10200000B0F1804F08D0B44FB84205D0B34FB842BA
:1020100002D0B34FB84206D14FF6FF57394046F4CD
:102020008077394305E04FF2FF57394044F4807719
:10203000394382830184F0BD028B4FF2FF331A4093
:102040000283028B4FF6FF7303EA01231A430283D4
:102050007047F0B50C461546002200210026078C7B
:102060004FF6EF7C07EA0C070784028B018C4FF6D2
:10207000FF7707EA041640F6FF473A404FF6FF772E
:1020800007EA03373A434FF6FF7707EA05273A4353
:102090008F4FB8420ED08F4FB8420BD0B0F1804F67
:1020A00008D08D4FB84205D08C4FB84202D08C4F2B
:1020B000B84206D14FF6DF77394046F01007394372
:1020C00005E04FF65F77394044F01007394302834B
:1020D0000184F0BD028B4FF6F3731A400283028B2A
:1020E0000A4302837047F0B50C46154600220021D2
:1020F000068C4FF6FE773E400684028B018C4FF62D
:102100000C7632407E1C06EA03162E433243704E94
:10211000B0420ED06F4EB0420BD0B0F1804F08D01D
:102120006D4EB04205D06D4EB04202D06C4EB04202
:1021300006D14FF6FD76314044F00106314305E00B
:102140004FF6F576314044F00106314302830184B5
:10215000F0BD70B505460C465D4885420ED05D4821
:1021600085420BD0B5F1804F08D05B48854205D041
:102170005A48854202D05A48854200D100E000BF4B
:10218000208850B92389A28861882846FFF7ABFFD1
:10219000E1882846FFF79EFF25E0208804280AD121
:1021A0002389A28861882846FFF753FFE1882846E3
:1021B000FFF742FF17E0208808280AD12389A28868
:1021C00061882846FFF7FBFEE1882846FFF7EEFE10
:1021D00009E02389A28861882846FFF7A6FEE188E6
:1021E0002846FFF795FE70BD2DE9F04105460C46E7
:1021F00000260127608808B9022600E00026A08892
:10220000012801D1022700E001272088A0B92389F5
:10221000A28861882846FFF766FFE1882846FFF715
:1022200059FF23893A4631462846FFF712FFE188D5
:102230002846FFF701FF13E02389A288618828461A
:10224000FFF707FFE1882846FFF7F6FE23893A46A5
:1022500031462846FFF747FFE1882846FFF73AFF57
:10226000BDE8F0810A884B881A438B881A43CB88D3
:102270001A430B891A434B891A438B891A43A0F8D6
:10228000442070474FF6FF71818000210180C1809A
:102290004180017270470021018041808180C180AE
:1022A000018141818181C18170470021018041808C
:1022B000012181800021C1800181704700210180BE
:1022C00041808180C180018141818181704700000E
:1022D000002C014000340140000400400008004090
:1022E000000C004021B1028842F00102028004E0AB
:1022F00002884FF6FE731A400280704731B1B0F881
:10230000442042F40042A0F8442005E0B0F8442004
:10231000C2F30E02A0F8442070471AB183890B4320
:10232000838102E083898B43838170478182704778
:1023300041EA0203A0F8483070471AB183890B4381
:10234000838102E083898B438381704701894FF643
:10235000F8721140018170470A46002101894FF649
:102360008F73194011430181704730B504460D4603
:1023700029462046FFF7F0FF208940F00700208122
:1023800030BD2DE9F04104460D4616461F46602D2E
:1023900006D13B46012231462046FFF75AFE05E0B2
:1023A0003B46012231462046FFF79DFE2946204646
:1023B000FFF7D2FF208940F007002081BDE8F081BF
:1023C00030B50C4600210189C9B24FF6FF7505EA08
:1023D0000325154325432943018130BD2DE9F041F3
:1023E00005460E4617469846002443463A4631466F
:1023F0002846FFF7E5FF2C894FF6F870044044F0BB
:1024000007044FF68F70044044F070042C81BDE83F
:10241000F081F0B504460D4616461F463B4632464F
:1024200029462046FFF7CCFF208940F480402081D8
:10243000F0BD0185828270470A46002101884FF66F
:102440008F731940114301807047F0B50C46154653
:102450001E460021002200230189028B038C4FF6C7
:10246000F877394021434FF6FC473A4040F20117D4
:102470003A434FF6DD773B404FF6FF7707EA061702
:102480002F433B43018102830384F0BD0A460021B0
:10249000018B4FF68F7319401143018370470A4631
:1024A0000021018B48F6FF7319404FF6FF7303EAD2
:1024B00002231943018370470A460021818B4FF69E
:1024C0008F7319401143818370470A460021818B25
:1024D00048F6FF7319404FF6FF7303EA02231943CE
:1024E0008183704721B1028842F08002028004E0BB
:1024F00002884FF67F731A400280704721B18288AC
:1025000042F00402828004E082884FF6FB731A4096
:102510008280704721B1828842F00802828004E004
:1025200082884FF6F7731A408280704721B1828803
:1025300042F00102828004E082884FF6FE731A4066
:10254000828070470A460021018B4FF6F7731940CD
:102550001143018370470A460021018B4FF2FF733C
:1025600019404FF6FF7303EA0223194301837047B2
:102570000A460021818B4FF6F7731940114381837E
:1025800070470A460021818B4FF2FF7319404FF6C6
:10259000FF7303EA02231943818370470A4600212F
:1025A000018B4FF6FB7319401143018370470A46B4
:1025B0000021018B4FF6FF3319404FF6FF7303EAFA
:1025C00002231943018370470A460021818B4FF68D
:1025D000FB7319401143818370470A460021818BA8
:1025E0004FF6FF3319404FF6FF7303EA02231943F6
:1025F000818370470A460021018B4FF67F73194093
:102600001143018370470A460021018BC1F30E017B
:102610004FF6FF7303EA02231943018370470A460A
:102620000021818B4FF67F731940114381837047DE
:102630000A460021818BC1F30E014FF6FF7303EAB6
:1026400002231943818370470A460021018C4FF60B
:10265000FD7319401143018470470A460021018C23
:102660004FF6F77319401143018470470A46002161
:10267000018C4FF6DF7319404FF6FF7303EA021324
:102680001943018470470A460021018C4FF67F737D
:1026900019404FF6FF7303EA021319430184704790
:1026A0000A460021018C4FF6FF5319404FF6FF7385
:1026B00003EA02231943018470470A460021018C72
:1026C0004FF2FF7319404FF6FF7303EA02231943D9
:1026D000018470470A460021018C4DF6FF731940B2
:1026E0004FF6FF7303EA023319430184704730B594
:1026F000002301248C40A3B2048C9C430484048CEA
:1027000002FA01F5ADB22C43048430BD30B500238C
:1027100004248C40A3B2048C9C430484048C02FAED
:1027200001F5ADB22C43048430BD70B503460020E2
:1027300000241846183001258D40ACB21D8CA543ED
:102740001D8409B1082909D100EB6100056825F055
:10275000700505600568154305600EE00D1FC5F3A3
:102760004E052844056825F4E045056005684FF6E8
:10277000FF7606EA02263543056070BD21B1028866
:1027800042F00202028004E002884FF6FD731A4014
:102790000280704721B1028842F00402028004E006
:1027A00002884FF6FB731A400280704721B182887D
:1027B00042F08002828004E082884FF67F731A40E4
:1027C0008280704702884FF6F7731A4002800288B1
:1027D0000A430280704782884FF68F731A408280C6
:1027E00082880A438280704702894FF6F8731A4044
:1027F000028102890A430281704702894FF67F7382
:102800001A40028102890A4302817047818470471D
:10281000818570478186704701877047818770473F
:10282000A0F84010704702884FF6FF431A4002801C
:1028300002880A43028070470146888E704701462D
:10284000088F70470146888F70470146B1F84000F5
:1028500070470146888C70470146088D70470246D4
:102860000020138A0B4201D0012000E000207047B5
:10287000CA430282704730B502460020002300247C
:10288000158A05EA0103958905EA010413B10CB123
:10289000012000E0002030BDCA43028270470000E2
:1028A0000948804709480047FEE7FEE7FEE7FEE7E4
:1028B000FEE7FEE7FEE7FEE7FEE7FEE70448054920
:1028C000054A064B704700002D030008510100081F
:1028D000B8750020B87B0020B8770020B8770020BA
:1028E000002106E00A2100BF0A00A1F1010399B20C
:1028F000FAD10200A0F1010398B2F3D1704710B5EC
:102900004FF40041FE48FDF72AFF18B9FD49FE4883
:1029100001F0C6FDFC480068B0F57A7F75DAF94829
:102920000068B0F57A7F70DA40F64850F6490860E2
:10293000F44908604FF47840F4490860F4A24FF479
:102940009C71B42002F0BAFA4FF4FC60EF490860C1
:1029500000BF4FF40041EA48FDF701FF0028F8D01E
:10296000ED480088401C00B2EB490880EB48008825
:10297000401C00B2E94908800846B0F90000082868
:1029800022DBE548008864281ED000200880E44847
:102990000088401C00B2E2490880E0490988002212
:1029A00002EB011188B2DFA2C82102F087FADEA291
:1029B000C821702002F082FAD5A24FF49C71B42095
:1029C00002F07CFA052010BDD3480088642801D1AC
:1029D000D1490880D1490988002202EB011188B24F
:1029E000D0A2C82102F06AFACC490988491E002207
:1029F00002EB011188B2CCA2C82102F05FFAC4A296
:102A00004FF49C71B42002F059FABF480068B0F549
:102A10007A7F7DDABB480068B0F5FA6F7CDDB94893
:102A2000006840F6C411884276DA40F64850B6494C
:102A30000860B44908604FF47840B4490860BBA20C
:102A4000BE21B42002F03AFA4FF4FC60AF490860AE
:102A500000BF4FF40041AA48FDF781FE0028F8D0DE
:102A6000AD480088401E00B2AB490880AB480088E2
:102A7000401E00B2A9490880A748B0F9000000280C
:102A800004DC0020A4490880A4490880A348B0F9C8
:102A90000000002824DAA048008808B3A048008875
:102AA000F0B107209D4908809D480088401E00B273
:102AB0009B49088099490988002202EB011188B2DC
:102AC00098A2C82102F0FAF997A2C821002002F0CA
:102AD000F5F996A2BE21B42002F0F0F9062072E7C3
:102AE0008E490988002202EB011188B28DA2C8210B
:102AF00002F0E4F989490988491C002202EB01111E
:102B000088B289A2C82102F0D9F988A2BE2100E0CA
:102B100002E0B42002F0D2F97B480068B0F57A7F79
:102B200027DA7848006840F6B831884221DD40F65F
:102B3000485075490860734908604FF478407349FC
:102B400008607CA23C21B42002F0B8F94FF4FC608C
:102B50006E49086000BF4FF400416948FDF7FFFD72
:102B60000028F8D073A23C21B42002F0A7F901207C
:102B700029E765480068B0F5FA6F2DDD6248006806
:102B800040F6C411884227DA5E48006840F6B83142
:102B9000884221DD40F648505B4908605949086089
:102BA0004FF478405949086063A23C215A2002F052
:102BB00085F94FF4FC605549086000BF4FF40041AF
:102BC0004F48FDF7CCFD0028F8D05BA23C215A20ED
:102BD00002F074F90020F6E60220F4E610B54F4941
:102BE0000988002202EB011188B24EA2C82102F02E
:102BF00065F9A0225100C82002F0FEFAC822F02197
:102C0000A02002F0E8FA4DA24FF49C71B42002F02B
:102C100055F9A022C821502002F0EEFA5022F021EE
:102C2000A02002F0D8FA48A2BE21B42002F046F952
:102C3000A0225021002002F0DFFA0022F021A02083
:102C400002F0C9FA43A23C21B42002F037F9502225
:102C50001146002002F0D0FA5022A021104602F0C6
:102C6000BAFA0022A021502002F0B5FA3BA23C2182
:102C70005A2002F023F910BD10B50021002000BF3A
:102C800022E0002107E00022C0EBC003354C04EB3A
:102C900083035A54491C0B29F5DB0022C0EBC00307
:102CA000304C04EB83031A61C0EBC00304EB8303D5
:102CB000DA60C0EBC00304EB83035A61C0EBC003CE
:102CC00004EB83039A61401CFF28DADD10BD002469
:102CD0000025661E002704F0C0F907B2022239461B
:102CE000204803F0BBFF2048B0F90000C0EBC00053
:102CF0001E4901EB8000076102201B4938E00000FB
:102D000000080140102B00200C2B00201C2B002061
:102D10004E45585420000000280000202A000020C2
:102D20002C0000203C2D0000202000004C4153547A
:102D300020000000494E00004F5554004E455854A5
:102D400020202020202000004C415354202020200F
:102D500020200000494E2020200000004F55542024
:102D600020200000584D00202E0000205831002067
:102D7000B1F90010C1EBC101FE4A02EB8101C8604C
:102D80000020FD49B1F90010C1EBC10102EB810146
:102D90004861F949B1F90010C1EBC10102EB8101B1
:102DA0008861F5480088401C00B2F3490880002083
:102DB000F24908802EE0F148B0F90000C0EBC000F5
:102DC000EF4901EB8000007A42281DD1EB48B0F9B1
:102DD0000000C0EBC00001EB8000407A492813D10D
:102DE000E648B0F90000C0EBC00001EB8000807A3B
:102DF0004E2809D1E148B0F90000C0EBC00001EB5A
:102E000080000069DF490860DC480088401C00B28F
:102E1000DA490880D948B0F900006428CBDB0020EB
:102E2000D6490880D8A2FA21542002F08CFADCA2FC
:102E3000FA21642002F087FAD3A2FA21742002F06A
:102E400082FADDA2FA21842002F07DFACEA2FA21D4
:102E5000942002F078FA002405E040F6B830FFF73D
:102E60003FFD601C04B2B4F52F7FF6DB002001F0BB
:102E700089FFF3E300BF00255CE0002456E0D4485E
:102E8000B0F9000005EBC000C0EBC000BC4901EB8D
:102E90008000005D00F0800080282CD1DFF830C376
:102EA000BCF900C005EBCC0CCCEBCC0C884608EB95
:102EB0008C0804F1010C18F80C30DFF814C3BCF9CD
:102EC00000C005EBCC0CCCEBCC0C884608EB8C0C92
:102ED0001CF804204FF4987CACEBC40C1FFA8CF166
:102EE0004FF0000C0CEB051C1FFA8CF002F095F96A
:102EF000A01C04B21AE0601C04B2B54BB3F9003058
:102F000005EBC303C3EBC303DFF874C20CEB830C04
:102F1000631E1CF803204FF49873A3EBC40399B20B
:102F2000002303EB051398B201F070FF0B2CA6DB16
:102F3000681C05B2082DA0DBFFF750FED1E3FFF7B8
:102F4000DEFC0646012E7CD1861E8C48B0F90000BE
:102F5000C0EBC0008A4901EB80004069002871D1B4
:102F6000002413E08548B0F90000C0EBC00084499C
:102F700001EB8000005D8049B1F90010C1EBC10197
:102F80007C4A02EB81010855601C04B20B2CE9DB82
:102F90007A48B0F90000C0EBC000794901EB80002D
:102FA00000697549B1F90010C1EBC101714A02EB2A
:102FB000810108617148B0F90000C0EBC0007049A0
:102FC00001EB8000C0686C49B1F90010C1EBC10190
:102FD00002EB8101C8606948B0F90000C0EBC00095
:102FE000674901EB800040696349B1F90010C1EB0A
:102FF000C10102EB810148616048B0F90000C0EBFB
:10300000C0005F4901EB800080695B49B1F90010A5
:10301000C1EBC10102EB810188616E49B1F9001079
:103020004FF6FF7202EA0110AFF20432C82101F03C
:1030300045FF00205149088066490880644908809E
:1030400001E00CE31CE0FFF717FE4B48B0F900006D
:10305000C0EBC000474B03EB8000C2684648B0F9A4
:103060000000C0EBC00003EB80000169444803F09E
:10307000F5FD41480088401C00B23F490880FAE64F
:10308000EBE23E48B0F90000C0EBC0003C4901EB68
:103090008000007A002844D13848B0F90000C0EB25
:1030A000C00001EB8000407AD0BB3448B0F900008A
:1030B000C0EBC00001EB8000807A88BB4FF4784001
:1030C0004549086045A25021002001F0F7FE4FF469
:1030D000FC60414908603F49B1F900104FF6FF72AA
:1030E00002EA0110AFF2C032C82101F0E7FE4FF64C
:1030F000FC70FFF7F5FB4FF6FC70FFF7F1FB4FF6A6
:10310000FC70FFF7EDFB38A25021002001F0D6FE45
:1031100000201A4908802F4908802D490880AAE616
:10312000FFE71648B0F90000C0EBC000144901EBFE
:103130008000406900B904261048B0F90000C0EBD7
:10314000C0000F4901EB8000007A4D2869D10B487F
:10315000B0F90000C0EBC00001EB8000407A4928C4
:103160005FD10648B0F90000C0EBC00001EB800061
:10317000807A3FE0583100202E00002028000020F7
:10318000584D0020142B00202E2E2E2E2E2E2E2EAB
:103190002E2E2E2E2E2E2E2E2E2E2E2E0000000007
:1031A000BBB6D3ADCAB9D3C3B2A5B7C5C6F77665AA
:1031B00072312E30000000002E2E2E2E2E2E2E626A
:1031C000792079687A6A2E2E2E2E2E2E000000008D
:1031D0002C0000202A0000201C2B00206E6F20668F
:1031E000696C657300000000202020202020202032
:1031F00000000000442814D1FE4AB2F90020C2EBBE
:10320000C2020B4603EB82025169FA4AB2F900206E
:10321000C2EBC20203EB8202106902F0ADFE064669
:1032200064E1F448B0F90000C0EBC000F24901EBE2
:103230008000007A542828D1EE48B0F90000C0EB95
:10324000C00001EB8000407A58281ED1E948B0F94F
:103250000000C0EBC00001EB8000807A542814D13C
:10326000E44AB2F90020C2EBC2020B4603EB820231
:103270005169E04AB2F90020C2EBC20203EB8202BC
:10328000106903F00DF8064630E1DA48B0F90000A5
:10329000C0EBC000D84901EB8000007A422813D16E
:1032A000D448B0F90000C0EBC00001EB8000407AC8
:1032B000492809D1CF48B0F90000C0EBC00001EBAC
:1032C0008000807A4E281ED0CA48B0F90000C0EBBA
:1032D000C000C94901EB8000007A202828D1C548E8
:1032E000B0F90000C0EBC00001EB8000407A20285C
:1032F0001ED1C048B0F90000C0EBC00001EB800057
:10330000807A202814D1BB4AB2F90020C2EBC20255
:10331000B94B03EB82025169B64AB2F90020C2EB05
:10332000C20203EB8202106903F032FA0646DDE0C6
:10333000B048B0F90000C0EBC000AF4901EB80001D
:10334000007A572828D1AB48B0F90000C0EBC00084
:1033500001EB8000407A41281ED1A648B0F9000058
:10336000C0EBC00001EB8000807A562814D1A14A3E
:10337000B2F90020C2EBC2020B4603EB8202516994
:103380009C4AB2F90020C2EBC20203EB8202106930
:1033900003F027FA0646A9E09648B0F90000C0EB12
:1033A000C000954901EB8000007A46282AD1914857
:1033B000B0F90000C0EBC00001EB8000407A4C285F
:1033C00020D18C48B0F90000C0EBC00001EB8000B8
:1033D000807A412816D100F055FF864AB2F90020C4
:1033E000C2EBC202844B03EB82025169814AB2F9FB
:1033F0000020C2EBC20203EB8202106902F04DFA18
:10340000064673E07B48B0F90000C0EBC0007A4983
:1034100001EB8000007A4D2813D17648B0F9000006
:10342000C0EBC00001EB8000407A502809D1714800
:10343000B0F90000C0EBC00001EB8000807A3328B7
:103440003DD06C48B0F90000C0EBC0006A4901EB08
:103450008000007A572813D16648B0F90000C0EB0D
:10346000C00001EB8000407A4D2809D16148B0F9D5
:103470000000C0EBC00001EB8000807A41281ED024
:103480005C48B0F90000C0EBC0005B4901EB800074
:10349000007A4F2828D15748B0F90000C0EBC0008F
:1034A00001EB8000407A47281ED15248B0F9000055
:1034B000C0EBC00001EB8000807A472814D14D4A50
:1034C000B2F90020C2EBC2024B4B03EB82025169FE
:1034D000484AB2F90020C2EBC20203EB8202106933
:1034E00002F0DBF9064600E0042600BF032E01D1FE
:1034F000361FC0E4042E7BD1761F3E480088401C56
:1035000000B23C4908803D480088401C00B23B495D
:1035100008800846B0F90000082877DB35480088A5
:10352000642873D00020088035480088401C00B211
:1035300033490880002567E0002456E03048B0F9A0
:10354000000005EBC000C0EBC0002B4901EB800080
:10355000005D00F0800080282CD1DFF8A4C0BCF909
:1035600000C005EBCC0CCCEBCC0C884608EB8C08EF
:1035700004F1010C18F80C30DFF884C0BCF900C06D
:1035800005EBCC0CCCEBCC0C884608EB8C0C1CF877
:1035900004204FF4987CACEBC40C1FFA8CF14FF074
:1035A000000C0CEB051C1FFA8CF001F036FEA01C81
:1035B00004B21AE0601C04B2114BB3F9003005EB01
:1035C000C303C3EBC303DFF830C00CEB830C631EF3
:1035D0001CF803204FF49873A3EBC40399B20023A3
:1035E00003EB051398B201F011FC0B2CA6DB09E0EC
:1035F00033E00BE028000020584D00202A00002076
:103600002C000020681C05B2082D95DB6548008859
:10361000642801D16349088063490988002202EBCC
:10362000011188B2AFF60412C82101F047FC5E48D0
:10363000008860B15C490988491E002202EB011133
:1036400088B2AFF61C12C82101F038FC05E0AFF6D5
:103650002812C821702001F031FC12E542E0052E4D
:1036600001D1B61F07E4062E01D1F61F03E4BEBB4D
:103670004FF0FF364D48B0F90000012831DD4B48CE
:103680000088401E00B2494908804749B1F900103E
:10369000320C02EA0110AFF67012C82101F00EFCE4
:1036A0000020404908804049088041490880FFF7D0
:1036B000E3FA3E48B0F90000401EC0EBC0003D4BAD
:1036C00003EB8000C2683948B0F90000401EC0EB2F
:1036D000C00003EB80000169374803F0BFFACEE475
:1036E000FFE72CE4FFF7C6BB01F0C4F90221334821
:1036F000FDF74FF847F23050FFF7F2F801F037FAD4
:10370000002001F03FFB40F6B830FFF7E9F8002059
:1037100001F038FB40F6B830FFF7E2F828A24FF48A
:103720009C71002001F0CAFB40F6B830FFF7D8F8D2
:1037300000F0F4FD28A24FF49C71102001F0BEFBB4
:103740004FF47A70FFF7CCF800F018FD28A24FF480
:103750009C71202001F0B2FB4FF47A70FFF7C0F8A3
:1037600000F058F928A24FF49C71302001F0A6FB1C
:103770004EF66020FFF7B4F802211048FDF70BF871
:103780004EF66020FFF7ACF8002001F0FBFA40F69F
:10379000B830FFF7A5F803F0A5FC03F0DDFCFFF758
:1037A00096FA0000280000202A0000202E000020A9
:1037B0002C00002058310020584D0020000C014002
:1037C0004C4344202E2E2E2E2E2E2E2E2E2E2E2EDE
:1037D0002E2E2E4F4B210000746F756368202E2E05
:1037E0002E2E2E2E2E2E2E2E2E2E4F4B2100000052
:1037F000565331303533202E2E2E2E2E2E2E2E2E99
:103800002E2E4F4B21000000534443415244202EA2
:103810002E2E2E2E2E2E2E2E2E2E4F4B2100000021
:1038200010B501210803FDF76EFA10BD10B586B082
:103830000446012C24D10020ADF804004FF482701E
:10384000ADF806000020ADF808000220ADF80A002F
:103850000120ADF80C004002ADF80E000820ADF8D4
:1038600010000020ADF812000720ADF8140001A9E7
:10387000FE48FDF7D3FA0121FC48FDF795FB23E054
:103880000020ADF804004FF48270ADF8060000206F
:10389000ADF808000220ADF80A000120ADF80C00D8
:1038A0004002ADF80E003820ADF810000020ADF851
:1038B00012000720ADF8140001A9EC48FDF7AEFA9C
:1038C0000121EA48FDF770FB06B010BD10B50446B3
:1038D00000BF0221E548FDF7EBFB0028F9D02146A7
:1038E000E248FDF792FB00BF0121E048FDF7E0FB55
:1038F0000028F9D0DD48FDF78AFBC0B210BD70B5D5
:10390000002500BFFF20FFF7E1FF0446681C85B2D9
:10391000A5F57F40FE3801D1012070BDFF2CF1D10B
:103920000020FAE72DE9F04105460C46164600272F
:103930004FF40061CE48FCF72CFFFF20FFF7C6FFD5
:103940004FF40061CA48FCF726FF45F04000FFF73E
:10395000BDFF200EFFF7BAFFC4F30740FFF7B6FF25
:10396000C4F30720FFF7B2FFE0B2FFF7AFFF304626
:10397000FFF7ACFF04E07F1CB7F5487F00D905E0F6
:10398000FF20FFF7A3FF8046FF28F4D000BF4FF4CD
:103990000061B748FCF7FDFEFF20FFF797FF4046A8
:1039A000BDE8F0812DE9F04105460C46164600279A
:1039B0004FF40061AE48FCF7ECFEFF20FFF786FFF6
:1039C0004FF40061AA48FCF7E6FE45F04000FFF71F
:1039D0007DFF200EFFF77AFFC4F30740FFF776FF65
:1039E000C4F30720FFF772FFE0B2FFF76FFF304626
:1039F000FFF76CFF04E07F1CB7F5167F00D905E0E8
:103A0000FF20FFF763FF8046FF28F4D000BF404649
:103A1000BDE8F0817CB5FFF703FF0020FFF706FF4C
:103A20004FF400619248FCF7B6FE002601E0701CDE
:103A300086B2B6F5706FFADB002604E0FF20FFF7D0
:103A400045FF701C86B20A2EF8DB002500BF9522C8
:103A500000210846FFF766FF0446681C85B2012C6A
:103A600001D0C82DF3DBC82D01D101207CBD8722F8
:103A70004FF4D5710820FFF795FF0446052C54D16B
:103A800001207C490870C1027948FCF782FEFF20C2
:103A9000FFF71CFF002500BF002211463720FFF76B
:103AA00041FF0446012C01D02046DFE700221146E9
:103AB0002920FFF737FF0446681C85B214B1B5F51D
:103AC000C87FE9DBB5F5C87F15D1002500BF00220E
:103AD00011460120FFF726FF0446681C85B214B189
:103AE000B5F5C87FF3DBB5F5C87F01D10120BDE78F
:103AF0000020604908700120FFF798FEFF20FFF7C3
:103B0000E5FE952200213B20FFF70CFF04460CB197
:103B10002046ABE795224FF400711020FFF702FF1B
:103B20000446002C6AD02046A0E7012C66D1FF2075
:103B3000FFF7CCFE8DF80000FF20FFF7C7FE8DF8E1
:103B40000100FF20FFF7C2FE8DF80200FF20FFF703
:103B5000BDFE8DF80300E1024548FCF71AFEFF2088
:103B6000FFF7B4FE002500BF002211463720FFF703
:103B7000D9FE0446012C01D0204677E701229107A7
:103B80002920FFF7CFFE0446C82D01DD20466DE752
:103B9000002CE9D1002211463A20FFF703FF04462A
:103BA0000CB1204662E7FF20FFF790FE8DF8000081
:103BB000FF20FFF78BFE8DF80100FF20FFF786FE48
:103BC0008DF80200FF20FFF781FE8DF803004FF40F
:103BD00000612748FCF7DDFDFF20FFF777FE9DF829
:103BE000000010F0400F03D004202249087002E0CA
:103BF0000220204908700120FFF718FE204635E713
:103C00002DE9F0410446884616464FF400611848F5
:103C1000FCF7C1FD002700BFFF20FFF757FE054658
:103C2000781C87B2B7F57A6F07DD4FF40061104852
:103C3000FCF7AFFD0120BDE8F081FE2DECD104E0E2
:103C4000FF20FFF743FE2070641C5FEA0800A8F124
:103C500001011FFA81F8F3D1FF20FFF737FEFF20A3
:103C6000FFF734FE012E0DD1F10205E000300140D6
:103C7000000C014090000020C848FCF78AFDFF209E
:103C8000FFF724FE0020D6E770B505460E46C4486F
:103C90000078042800D06D02012229461120FFF788
:103CA00041FE04460CB1204670BD0122510230464F
:103CB000FFF7A6FF04460CB12046F5E70020F3E726
:103CC0002DE9F04105460E460020FFF7AFFDB44850
:103CD0000078042800D06D02002229461820FFF742
:103CE00021FE044614B12046BDE8F0814FF4006186
:103CF000AA48FCF750FDFF20FFF7E8FDFF20FFF783
:103D0000E5FDFF20FFF7E2FDFE20FFF7DFFD0027C6
:103D100005E016F8010BFFF7D9FD781C87B2B7F55F
:103D2000007FF6DBFF20FFF7D1FDFF20FFF7CEFD80
:103D3000FF20FFF7CBFD044604F01F00052806D046
:103D40004FF400619548FCF724FD2046CCE74FF086
:103D500000080EE008F101001FFA80F84FF6FE702F
:103D6000804506DD4FF400618C48FCF712FD012010
:103D7000BAE7FF20FFF7AAFD0028EBD04FF400615F
:103D80008648FCF706FDFF20FFF7A0FD0020ABE70B
:103D90002DE9F04105460E46144681480078042876
:103DA00000D06D02012229461220FFF7BBFD074615
:103DB00017B13846BDE8F08100BF00224FF4007112
:103DC0003046FFF71DFF00B105E006F50076601EE6
:103DD000C0B20400F1D100BF012200210C20FFF786
:103DE000A1FD4FF400616D48FCF7D3FCFF20FFF705
:103DF0006DFD0CB12046DDE70020DBE72DE9F04149
:103E000006460F4615460020FFF710FD644800786F
:103E1000042800D076026248007828B101222946A1
:103E20001720FFF77FFD0446012231461920FFF7D6
:103E300079FD044614B12046BDE8F0814FF40061DD
:103E40005648FCF7A8FCFF20FFF740FDFF20FFF7D6
:103E50003DFD00BFFC20FFF739FD4FF0000807E0F3
:103E600017F8010BFFF732FD08F101001FFA80F887
:103E7000B8F5007FF4DBFF20FFF728FDFF20FFF7F8
:103E800025FDFF20FFF722FD044604F01F00052852
:103E900006D04FF400614148FCF77BFC2046CBE79D
:103EA000FFF72DFD012805D1C1023C48FCF771FC4C
:103EB0000120C1E7681EC0B20500CBD1FD20FFF78D
:103EC00005FD044604B9FE25FFF719FD30B14FF496
:103ED00000613248FCF75DFC0120ADE74FF4006162
:103EE0002E48FCF756FCFF20FFF7F0FC2846A3E71E
:103EF0002DE9F04707460D461646984600247902FC
:103F000001221120FFF70EFD8146B9F1000F02D00A
:103F10004846BDE8F0874FF400612048FCF73BFCC1
:103F20000CE0601C84B240F6B830844206DD4FF4E9
:103F300000611A48FCF72DFC0120EAE7FF20FFF79B
:103F4000C5FCFE28EDD1002404E0FF20FFF7BEFCF5
:103F5000601C84B2B442F8D306E0FF20FFF7B6FC41
:103F600005F8010B601C84B206EB0800A042F4D8EF
:103F700004E0FF20FFF7AAFC601C84B2B4F5007FC8
:103F8000F7DBFF20FFF7A2FCFF20FFF79FFC4FF4B9
:103F900000610248FCF7FDFB0020BAE7000C01407D
:103FA00090000020704700BFFEE700BFFEE700BFA3
:103FB000FEE700BFFEE770477047704700B585B069
:103FC00001218803FCF7ACFE0021CF48FCF7ECFF91
:103FD0000020ADF800004FF48270ADF80200002020
:103FE000ADF80400ADF80600ADF808004FF400701D
:103FF000ADF80A000820ADF80C000020ADF80E0066
:104000000720ADF810006946BF48FCF707FF012103
:10401000BD48FCF7C9FF05B000BD00B585B0012162
:104020008803FCF77DFE0021B748FCF7BDFF0020A8
:10403000ADF800004FF48270ADF802000020ADF83A
:104040000400ADF80600ADF808004FF40070ADF8BC
:104050000A002820ADF80C000020ADF80E00072063
:10406000ADF810006946A848FCF7D8FE0121A64823
:10407000FCF79AFF05B000BD10B5044600BF022151
:10408000A148FDF715F80028F9D021469E48FCF715
:10409000BCFF00BF01219C48FDF70AF80028F9D0B9
:1040A0009948FCF7B4FFC0B210BD0CE0042107E052
:1040B000BE2201E0531EDAB2002AFBDC4B1ED9B24D
:1040C0000029F5DC401E0028F0DC704770B506467C
:1040D0000C4615464FF400618C48FCF75AFB00BFB4
:1040E0004FF400618948FCF73AFB0028F8D04FF400
:1040F00080518648FCF74FFB0220FFF7BDFF30469A
:10410000FFF7BAFF2046FFF7B7FF2846FFF7B4FFD7
:104110004FF480517D48FCF73CFB70BD2DE9F04128
:104120000446002500260027FFF777FF00BF4FF465
:1041300000617648FCF713FB0028F8D04FF480515B
:104140007248FCF728FB0320FFF796FF2046FFF795
:1041500093FFFF20FFF790FF0546FF20FFF78CFF3E
:1041600006464FF480516948FCF713FB06EB052027
:1041700087B2FFF723FF3846BDE8F08110B54FF452
:1041800080616248FCF707FB40F6B830FFF78DFF0F
:104190004FF480615D48FCF7FCFA40F6B830FFF759
:1041A00084FFFFF73AFF972208210020FFF78EFFD8
:1041B0001E20FFF77AFF002298210320FFF786FFD9
:1041C0001E20FFF772FFF6227A210220FFF77EFF02
:1041D0001E20FFF76AFF402211460B20FFF776FFF3
:1041E0001E20FFF762FFFFF7E9FE4FF48071484899
:1041F000FCF7D1FAFF20FFF73FFFFF20FFF73CFF5E
:10420000FF20FFF739FFFF20FFF736FF4FF48071E3
:104210003F48FCF7BEFA10BD10B54FF480713C4822
:10422000FCF7B7FA3B480068401C3A49086008466A
:104230000068FA2805DC0846027801780B20FFF7B1
:1042400045FF4FF480713248FCF7A5FA10BD10B558
:104250004FF480712E48FCF79CFA2E480068401EEF
:104260002C49086008460068002805DB08460278EB
:1042700001780B20FFF72AFF4FF480712448FCF7E8
:104280008AFA10BD2DE9F041002437E02046611C78
:104290008CB2214931F8100087B22046611C8CB2E3
:1042A0001D4931F8100085B215F4004F14D0C5F344
:1042B0000E052046611C8CB2174931F8100086B2F9
:1042C00004E0F2B23112F8B2FFF700FF2800A5F1C6
:1042D00001018DB212D0F4E70BE02046611C8CB2D4
:1042E0000D4931F8100086B2F2B23112F8B2FFF780
:1042F000EDFE2800A5F101018DB2EED141F2395059
:104300008442C3DBBDE8F08100380040000C01406E
:1043100000080140940000209800002010B50421FE
:104320006B48FCF736FA08216A48FCF732FA20217C
:104330006848FCF72EFA08216648FCF72AFA10BDF7
:1043400070B50446002500BF18E004F08000802806
:1043500004D120215F48FCF71CFA03E020215D48CE
:10436000FCF719FA08215B48FCF715FA08215948AF
:10437000FCF70FFA6006040E681CC5B2082DE4DBDA
:1043800070BD2DE9F0410746002500244FF4E17689
:1043900008215048FCF7FFF920214E48FCF7FBF9B3
:1043A00004214B48FCF7F7F93846FFF7C9FF00BF77
:1043B0003000A6F101018EB2FAD108214548FCF780
:1043C000EAF9482600BF3000A6F101018EB2FAD109
:1043D00008214048FCF7DDF908213E48FCF7DBF9ED
:1043E000002515E008213B48FCF7D5F94FF6FF7092
:1043F00000EA440408213748FCF7CBF9102135487E
:10440000FCF7ADF9012801D1601C84B2681CC5B26B
:10441000102DE7DB241104212D48FCF7BAF92046C2
:10442000BDE8F0812DE9F04188B0804600270024E6
:1044300006E04046FFF7A5FF2DF81400601C84B28B
:104440000F2CF6DB002416E0601C85B20FE03DF86F
:1044500014003DF81510884207DD3DF814603DF862
:1044600015002DF814002DF81560681C85B20F2D6D
:10447000EDDB601C84B20E2CE6DB0027052405E092
:104480003DF81400384487B2601C84B20A2CF7DB74
:10449000052097FBF0F086B2304608B0BDE8F08109
:1044A0002DE9F04104460D46D020FFF7BBFF06463C
:1044B0009020FFF7B7FF0746642E01DB642F02DA76
:1044C0000020BDE8F08126602F600120F9E70000A0
:1044D00000140140000C014010B5FCF7FBF94FF44B
:1044E0008030FCF71EFA0020FCF77CFAFCF758FA43
:1044F000044600BF3120FCF737FA0028FAD0012C1F
:1045000033D10020FCF7BBFA0020FCF7CAFAA00266
:10451000FCF7BEFA4020FCF783FA4FF4C060FCF7CA
:1045200088FA04218803FCF76FFA0120FCF78AFA65
:1045300000BFF748006810F0006FFAD04FF4E011A8
:104540004FF48030FCF751FA0120FCF75AFA00BF13
:104550003920FCF709FA0028FAD00220FCF781FA8A
:1045600000BFFCF787FA0828FBD101210420FCF7E3
:10457000CAFB01210820FCF7C6FB01211020FCF733
:10458000C2FB01212020FCF7BEFB01214020FCF7EB
:10459000BAFB01210846FCF7B6FB0121DD48FCF718
:1045A0001CF910BD08B5DC48FBF7E8FF40F2C3304A
:1045B000ADF8000010208DF8030003208DF80200F4
:1045C0006946D548FCF73AF84FF42040ADF80000B2
:1045D00003208DF8020018208DF803006946CE48AC
:1045E000FCF72CF84FF48040ADF8000003208DF864
:1045F000020018208DF803006946C748FCF71EF832
:104600004FF40060ADF8000003208DF80200482050
:104610008DF803006946C048FCF710F84FF480603D
:10462000ADF8000003208DF8020010208DF8030083
:104630006946B948FCF702F84FF48050ADF8000025
:1046400003208DF8020010208DF803006946B2485F
:10465000FBF7F4FF2820ADF8000003208DF80200DE
:1046600010208DF803006946AB48FBF7E7FF1020E8
:10467000ADF8000003208DF8020028208DF803001B
:104680006946A548FBF7DAFF08BD08B5A348FBF764
:1046900075FF4FF6FF70ADF8000010208DF8030095
:1046A00003208DF8020069469C48FBF7C7FF08BD50
:1046B00008B59B48FBF762FF4FF48070ADF800002F
:1046C00010208DF8030003208DF8020069469448FD
:1046D000FBF7B4FF0420ADF8000018208DF80300AC
:1046E00003208DF8020069468D48FBF7A7FF0820DC
:1046F000ADF8000018208DF8030003208DF80200AB
:1047000069468748FBF79AFFA020ADF80000032018
:104710008DF8020018208DF8030069468048FBF7E9
:104720008DFF4020ADF8000003208DF802004820E6
:104730008DF8030069467A48FBF780FF1020ADF83A
:10474000000003208DF8020010208DF80300694658
:104750007348FBF773FF4FF40040ADF800000320EF
:104760008DF8020048208DF8030069466C48FBF77D
:1047700065FF08BD08B56B48FBF700FF0420ADF8E6
:10478000000010208DF8030003208DF80200694618
:104790006448FBF753FF08BD1FB501214804FCF72F
:1047A000BFFA4FF4E13000900020ADF80C000C206F
:1047B000ADF80A000020ADF80800ADF80600ADF82D
:1047C000040069465848FCF7F0FC01215648FCF704
:1047D00078FD1FBD70B50446002504E080215248D5
:1047E000FCF74AFE0546002DF8D021464E48FCF75E
:1047F000D5FD80214C48FCF74CFE70BD10B5044639
:1048000003E02078FFF7E6FF641C20780028F8D149
:1048100010BD2DE9F05F0446002500260027A846BC
:10482000A946AA46AB460A2094FBF0F100FB1145CD
:104830003E4894FBF0F100FB114042F2107190FBF6
:10484000F1F201FB12004FF47A7190FBF1F201FBDF
:104850001200642190FBF1F201FB12000A2190FB8F
:10486000F1F6324894FBF0F100FB114042F2107176
:1048700090FBF1F201FB12004FF47A7190FBF1F220
:1048800001FB1200642190FBF1F7284894FBF0F142
:1048900000FB114042F2107190FBF1F201FB12009B
:1048A0004FF47A7190FBF1F8204894FBF0F100FB93
:1048B000114042F2107190FBF1F91C4894FBF0FAA0
:1048C0001B4894FBF0FB0BF13001C8B2FFF782FFED
:1048D0000AF13001C8B2FFF77DFF09F13001C8B21B
:1048E000FFF778FF08F13001C8B2FFF773FF07F157
:1048F0003001C8B2FFF76EFF06F13001C8B2FFF712
:1049000069FF05F13001C8B2FFF764FFBDE8F09F11
:104910000010024000023000000C01400010014075
:10492000000801400014014000440040A08601003E
:1049300040420F0000B587B001214FF40170FCF731
:10494000E2F94FF40040FCF7C6F80220ADF804008D
:1049500000208DF8070001A94C48FBF76FFE4C487A
:10496000FCF7E4FD002002908DF80C0001208DF88A
:104970000D004FF4602004900020059001208DF878
:10498000180002A94248FCF7F8FD01214048FCF755
:1049900020FE3F48FCF73FFE00BF3D48FCF740FECD
:1049A0000028FAD13A48FCF745FE00BF3848FCF72A
:1049B00046FE0028FAD107B000BD00B587B001213E
:1049C00040F20440FCF79FF94FF40040FCF783F8F5
:1049D0000120ADF8040000208DF8070001A92B4844
:1049E000FBF72CFE2B48FCF7A1FD002002908DF870
:1049F0000C0001208DF80D004FF460200490002081
:104A0000059001208DF8180002A92248FCF7B5FD99
:104A100001212048FCF7DDFD1E48FCF7FCFD00BF2E
:104A20001C48FCF7FDFD0028FAD11A48FCF702FEED
:104A300000BF1848FCF703FE0028FAD107B000BDFC
:104A400010B5FFF777FFFFF7B8FF01211048FCF71B
:104A500000FE0023012211460D48FCF726FE01212D
:104A60000C48FCF7F6FD0023012211460948FCF72B
:104A70001CFE10BD10B5FFF72FFDFFF719FEFFF765
:104A800091FDFFF702FEFFF775FE10BD0008014023
:104A90000024014000280140002106E00A2100BF57
:104AA0000A00A1F1010399B2FAD10200A0F10103B9
:104AB00098B2F3D1704710B504462146FB48FBF786
:104AC00071FE8021FA48FBF766FE8021F848FBF76B
:104AD00060FE10BD10B504464021F548FBF759FEB5
:104AE0002046FFF7E8FF10BD10B504464021F0480E
:104AF000FBF751FE2046FFF7DEFF10BD70B5044600
:104B00000D46A0B2FFF7F0FFA8B2FFF7E3FF70BDBC
:104B10002DE9F04104460D4616461F462020FFF7BA
:104B2000E3FFA0B2FFF7D6FF2120FFF7DDFFA8B219
:104B3000FFF7D0FF5020FFF7D7FFA0B2FFF7CAFF63
:104B40005220FFF7D1FFA8B2FFF7C4FF5120FFF7B3
:104B5000CBFFB0B2FFF7BEFF5320FFF7C5FFB8B2DF
:104B6000FFF7B8FF2220FFF7BFFFBDE8F08110B5C7
:104B70000121CF48FBF70DFE4FF40071CC48FBF745
:104B800008FE1420FFF788FF4FF40071C848FBF7B8
:104B900002FE1420FFF780FF4FF40071C448FBF7BA
:104BA000F8FD0121C248FBF7F4FD4FF48071C048C5
:104BB000FBF7EFFD8021BE48FBF7EBFD1420FFF76C
:104BC0006BFF0121BA48FBF7E6FD4FF4807101202D
:104BD000FFF794FF4FF4E0610220FFF78FFF41F2EF
:104BE00030010320FFF78AFF00210420FFF786FF32
:104BF00040F207210820FFF781FF00210920FFF77D
:104C00007DFF00210A20FFF779FF00210C20FFF72C
:104C100075FF00210D20FFF771FF00210F20FFF726
:104C20006DFF00211020FFF769FF07211120FFF71A
:104C300065FF00211220FFF761FF00211320FFF71D
:104C40005DFF41F290211020FFF758FF40F227212D
:104C50001120FFF753FF1D211220FFF74FFF4FF4E4
:104C6000A8511320FFF74AFF18212920FFF746FF1C
:104C70000D212B20FFF742FF04213020FFF73EFFDC
:104C800040F207313120FFF739FF02213220FFF7D0
:104C900035FF40F206213520FFF730FF4FF48161E8
:104CA0003620FFF72BFF40F207513720FFF726FF92
:104CB0004FF401713820FFF721FF40F207713920CE
:104CC000FFF71CFF40F205413C20FFF717FF40F6BD
:104CD00002713D20FFF712FF00215020FFF70EFF69
:104CE000EF215120FFF70AFF00215220FFF706FFB6
:104CF00040F23F115320FFF701FF4FF4274160209E
:104D0000FFF7FCFE01216120FFF7F8FE00216A2079
:104D1000FFF7F4FE00218020FFF7F0FE0021812044
:104D2000FFF7ECFE00218220FFF7E8FE0021832040
:104D3000FFF7E4FE00218420FFF7E0FE002185203C
:104D4000FFF7DCFE10219020FFF7D8FE4FF4C06182
:104D50009220FFF7D3FE03219320FFF7CFFE4FF4FD
:104D600088719520FFF7CAFE00219720FFF7C6FE45
:104D700000219820FFF7C2FE40F233110720FFF711
:104D8000BDFE10BD70B5064640F23F13EF22002174
:104D90000846FFF7BDFE002409E0002503E0304689
:104DA000FFF798FE6D1CB5F5A07FF8DB641CF02CB6
:104DB000F3DB70BD70B504460D462B4622462946EE
:104DC0002046FFF7A5FE3B49098888B2FFF782FE1F
:104DD00070BD70B540F23F13EF2200210846FFF787
:104DE00097FE00240FE0002508E040213048FBF743
:104DF000D0FC0020FFF75FFE681C85B2B5F5A07FF0
:104E0000F3DB601C84B2F02CEDDB70BD2DE9F05FAC
:104E100005460E461746E02D02DCB6F59C7F01DD07
:104E2000BDE8F09FA7F12000C7B206F1080305F125
:104E3000100231462846FFF76BFE4FF0000810E0E5
:104E40004FF0080B08E040211948FBF7A2FC0020B6
:104E5000FFF731FEABF1010BBBF1000FF3DA08F104
:104E60000108B8F1100FEBDD00241AE004EB071085
:104E7000114911F800A04FF007090DE01AF0010FD9
:104E800006D006EB090291B22A1990B2FFF792FF01
:104E90004FEA6A0AA9F10109B9F1000FEEDA601CC4
:104EA000C4B2102CE2DB00BFBAE7000000100140E2
:104EB000000C01401C2B0020202B002070B5064662
:104EC0000C46154614E0E02E04DDFFF782FF4FF498
:104ED0009C740026002C04DA4FF49C7406F1100038
:104EE00086B22A78A1B23046FFF790FF083C6D1CCD
:104EF00028780028E7D170BD2DE9F04706460F4617
:104F00009046002445460320A0EB480948E03A1BA0
:104F100091B2721B90B2FFF74DFF3A1B91B272191A
:104F200090B2FFF747FF7A1991B2321B90B2FFF7A8
:104F300041FF3A1B91B2721B90B2FFF73BFF7A1B05
:104F400091B2321B90B2FFF735FF3A1991B2721944
:104F500090B2FFF72FFF7A1B91B2321990B2FFF790
:104F600029FF7A1991B2321990B2FFF723FF3A194B
:104F700091B2721B90B2FFF71DFF641CB9F1000FD4
:104F800003DAA000801D814404E0601B80000A3029
:104F900081446D1E7A1991B2321990B2FFF70AFF5F
:104FA000AC42B4DDBDE8F0872DE9F74F84B005468B
:104FB000144600260027B046002003908146824612
:104FC00083460A2094FBF0F100FB1146642094FB19
:104FD000F0F100FB11400A2190FBF1F74FF47A70D9
:104FE00094FBF0F100FB1140642190FBF1F842F2D8
:104FF000107094FBF0F100FB11404FF47A7190FBBC
:10500000F1F00390E64894FBF0F100FB114042F20E
:10501000107190FBF1F9E34894FBF0F100FB1140B3
:10502000DF4990FBF1FADF4894FBF0FB0BF1300015
:10503000C0B28DF804000AF13000C0B28DF805004E
:1050400009F13000C0B28DF8060003983030C0B2CC
:105050008DF8070008F13000C0B28DF8080007F1A4
:105060003000C0B28DF8090006F13000C0B28DF8F2
:105070000A0000208DF80B0001AA28460599FFF7C9
:105080001DFF07B0BDE8F08F2DE9F04F87B0064651
:105090000C4615460027B846B946002006908246C1
:1050A00005908346C049284602F0F4FD054628468F
:1050B00002F0B4FD0A2190FBF1F201FB1200C7B22D
:1050C000284602F0ABFD642190FBF1F201FB1200D7
:1050D0000A2190FBF1F000F0FF08284602F09EFD47
:1050E0004FF47A7190FBF1F201FB1200642190FB06
:1050F000F1F000F0FF09284602F090FD42F2107135
:1051000090FBF1F201FB12004FF47A7190FBF1F089
:10511000C0B20690284602F081FDA14990FBF1F251
:1051200001FB120042F2107190FBF1F000F0FF0A57
:10513000284602F073FD9B4990FBF1F201FB12003F
:10514000974990FBF1F0C0B205909849284602F0CB
:10515000A3FC019002F07EFD00F0FF0B0BF130008C
:10516000C0B28DF8100005983030C0B28DF8110033
:105170000AF13000C0B28DF8120000208DF8130043
:1051800006983030C0B28DF8080009F13000C0B286
:105190008DF8090008F13000C0B28DF80A0007F15F
:1051A0003000C0B28DF80B0000208DF80C0004AA6E
:1051B00021463046FFF782FEA4F118017CA230465A
:1051C000FFF77CFEA4F1200102AA3046FFF776FE2D
:1051D00007B0BDE8F08F2DE9F04104460D461646B4
:1051E0002F1B05E0B1B2A0B2FFF7E4FD641C7F1EE7
:1051F000002FF7DCBDE8F0812DE9F04104460D46B3
:1052000016462F1B05E0A1B2B0B2FFF7D3FD641C18
:105210007F1E002FF7DCBDE8F0812DE9FE4F074629
:105220000D469046994600200190E02F02DCB5F52E
:105230009C7F01DDBDE8FE8FA5F110012B4607F133
:1052400010023846FFF764FC4FF0000B11E010200D
:10525000029009E040215748FBF79BFA0020FFF736
:105260002AFC0298401E029002980028F2DA0BF104
:10527000010BBBF1100FEADDA9F1A102A8F1A10118
:105280005E2303FB01214901CA17009101EBD251B2
:10529000494A126802EB61204849FEF7F5FC0024F8
:1052A0004DE0A9F1A102A8F1A1015E2303FB0121B8
:1052B0004801C11700EBD1514912A0EB41220199DD
:1052C000214411443D4A12F801A007260BE01AF0D0
:1052D000010F05D0AA1B91B23A1990B2FFF76AFDEF
:1052E0004FEA6A0A761E002EF1DA0198401C0190FE
:1052F000A9F1A102A8F1A1015E2303FB012148014C
:10530000C11700EBD1514912A0EB41220199214470
:1053100011442A4A12F801A007260CE01AF0010FE6
:1053200006D0AA1B083A91B23A1990B2FFF742FD93
:105330004FEA6A0A761E002EF0DA601CC4B2102C06
:10534000AFDB00BF76E72DE9F04106460D46144677
:1053500020E0E02E04DDFFF73CFD4FF49C750026B5
:10536000002D02DA4FF49C751036207800F0800092
:10537000802808D163782278A9B2B0B2FFF74DFF38
:10538000103DA41C06E0083D2278A9B2B0B2FFF798
:105390003DFD641C20780028DBD1BDE8F0810000D1
:1053A000A086010040420F0000401C4600247449C2
:1053B0002E000000000C0140142B00205869002032
:1053C00030B50146B1F1807F01D3012030BD21F01D
:1053D0007F40401E4FF0E022506150170F220028FE
:1053E00007DA13071D0EFE4B00F00F04241F1D5596
:1053F00003E013071C0EFB4B1C5400BF00204FF0B2
:10540000E0229061072010610020DFE770B50446BC
:1054100000251CE00421F448FBF7BDF904F08000EE
:10542000802804D10821F048FBF7B3F903E00821F4
:10543000ED48FBF7B0F90421EB48FBF7AAF9600649
:10544000040E0421E848FBF7A6F9681CC5B2082D34
:10545000E0DB70BD4EF6602000BF0100A0F101004E
:10546000FBD1704710B5E148006858BBE048E149FE
:105470000968415C0246DF480068401C105C01EB93
:10548000002000F50040000ADB490870084601785A
:105490004FF08040FDF7C2F9D549D6480068801C1E
:1054A000095CD34AD3480068C01C105C01EB0020A3
:1054B00000F50040000AD149087008460178D0483C
:1054C000FDF7AEF9C948006801282BD1CD48C9497C
:1054D0000968415C0246C7480068401C105C01EB4B
:1054E000002000F50040000AC34908700846017812
:1054F0004FF08040FDF792F9C249BE480068801C19
:10550000095CC04ABB480068C01C105C01EB00206D
:1055100000F50040000AB949087008460178B8480B
:10552000FDF77EF9B3480068001DB249086010BD60
:105530003EB50446012C20D1FCF716FA0F210020BD
:10554000FBF790F9E003019000208DF808000C2093
:105550008DF8090001208DF80A0001A8FCF712FA65
:1055600028208DF8000001208DF801008DF8020040
:105570008DF803006846FAF798FF14BBFCF7F4F9BE
:105580000F210020FBF76EF94FF40040019000203E
:105590008DF808000C208DF8090000208DF80A0015
:1055A00001A8FCF7EFF928208DF8000001208DF804
:1055B00001008DF8020000208DF803006846FAF71C
:1055C00074FF3EBD10B54FF40040FCF741FA0028CF
:1055D0007ED08D498D48FEF763FF8C480068B0F59A
:1055E0007A7F59DA88480068B0F57A7F54DA40F655
:1055F000485086490860844908604FF478408449DF
:10560000086084A24FF49C71B420FFF757FC4FF45C
:10561000FC607F4908604FF480717348FBF7B9F86C
:105620004FF480517E48FBF7B6F8802211460B20DC
:10563000FEF74CFD4FF480517948FBF7AAF84FF480
:1056400080716948FBF7A7F81E20FEF72EFD4FF486
:1056500080716548FBF79DF84FF480517048FBF767
:105660009AF8972208210020FEF730FD1E20FEF751
:105670001CFD6C48027801780B20FEF727FD4FF4E3
:1056800080516748FBF785F84FF480715648FBF767
:1056900082F80120644908605C480068B0F57A7FB0
:1056A0006BDA59480068B0F5FA6F66DD5648006855
:1056B00040F6C411884260DA40F648505349086009
:1056C000514908604FF478405149086057A200E002
:1056D000E2E0BE21B420FFF7F1FB4FF4FC604C493F
:1056E00008604FF480714048FBF753F84FF4805145
:1056F0004B48FBF750F8802211460B20FEF7E6FCE2
:105700004FF480514648FBF744F84FF48071364817
:10571000FBF741F81E20FEF7C8FC4FF480713248B9
:10572000FBF737F84FF480513D48FBF734F89722E8
:1057300008210020FEF7CAFC1E20FEF7B6FC3948FF
:10574000027801780B20FEF7C1FC4FF480513448F9
:10575000FBF71FF84FF480712348FBF71CF836A2C3
:10576000BE21B420FFF7AAFB40F648502749086045
:105770002549086002202C49086024480068B0F5DB
:105780007A7F1FDA2048006840F6B831884219DD78
:1057900040F648501D4908601B4908604FF47840A6
:1057A0001B49086027A23C21B420FFF787FB4FF478
:1057B000FC6017490860FEF74AFD22A23C21B42094
:1057C000FFF77CFB11480068B0F5FA6F5CDD0F480D
:1057D000006840F6C411884256DA0B48006835E08C
:1057E00018ED00E000E400E0000801401031002066
:1057F000586B00201431002020310020213100207E
:10580000000C0040586D0020102B00200C2B0020B5
:105810001C2B00204E455854204D55534943000041
:10582000000C0140940000201C3100204F555420F2
:1058300020202020202000004F5554202020202010
:1058400000000000564F4C2B0000000040F6B8311D
:10585000884219DD40F64850FA490860FA49086064
:105860004FF47840F9490860F9A23C215A20FFF72B
:1058700025FB4FF4FC60F5490860FEF7CDFCF4A26F
:105880003C215A20FFF71AFB4FF40040FCF7DCF8EC
:105890004FF40040FCF7EDF810BD2DE9F0418046D3
:1058A0000D4647462846E91705EBD15149124E1CD3
:1058B000324650212020FFF777FBA0225100C8205C
:1058C000FFF79AFCC822F021A020FFF784FCAFF27A
:1058D000BC024FF49C71B420FFF7F0FAA022C8215B
:1058E0005020FFF789FC5022F021A020FFF773FC25
:1058F000AFF2C802BE21B420FFF7E0FAA022502187
:105900000020FFF779FC0022F021A020FFF763FCC4
:10591000AFF2D0023C21B420FFF7D0FA502211465A
:105920000020FFF769FC5022A0211046FFF753FC2E
:105930000022A0215020FFF74EFCC5A23C215A2096
:10594000FFF7BCFAC4493846FEF79EF9002417E079
:10595000C148005D692812D1BF49601C085C6D28F0
:105960000DD1A01C085C612809D107F52F77A6F599
:105970002F76324650212020FFF716FB04E0641CEE
:10598000B4F5007FE4DB00BF002422E00020B3492F
:10599000086019E0B14B1B684FF00C0C0CFB043392
:1059A000DFF8B4C21CF80320AC4B1B884FF0B00CDE
:1059B000ACEBC30399B22305180CFFF727FAA748ED
:1059C0000068401CA5490860A44800680C28E1DB79
:1059D000641C082CDADB0221A148FAF7DCFECAE2DB
:1059E000E91705EBD151012202EB6121B14205D14A
:1059F00040F64850934908609349086096493846F4
:105A0000FEF742F902219648FAF7C3FE4FF480717F
:105A10009448FAF7C0FE4FF480519148FAF7B9FE66
:105A200000208E49086017E004E032465021102023
:105A3000FFF7BAFA4FF400618948FAF790FE0028A0
:105A4000F3D08549854A1268885CFEF715FB8348C8
:105A50000068401C8149086080480068B0F5007FFC
:105A6000E2DB4FF480717F48FAF793FE4FF48051E8
:105A70007B48FAF790FE7F1C761E701C56D14FF4BF
:105A800080717848FAF785FE4FF480517448FAF730
:105A900082FE802211460B20FEF718FB4FF4805146
:105AA0006F48FAF776FE4FF480716E48FAF773FE8E
:105AB00000206A4908600FE000BF4FF400616848A9
:105AC000FAF74DFE0028F8D0FF20FEF7D5FA63481C
:105AD0000068401C6149086060480068B0F5006FCC
